:020000040800F2
:100000000080012071400008B53F0008B93F00089A
:10001000BD3F0008C13F0008C53F000800000000C8
:10002000000000000000000000000000C93F0008C0
:10003000CD3F000800000000D13F0008D53F000878
:10004000C1400008C1400008C1400008C14000088C
:10005000C1400008C1400008C1400008C14000087C
:10006000C1400008C1400008C1400008C14000086C
:10007000C1400008C1400008C1400008C14000085C
:10008000C1400008C1400008E53F00080000000032
:10009000000000000000000000000000C140000857
:1000A000C1400008C1400008F13F0008C1400008FD
:1000B000C1400008C1400008C1400008C14000081C
:1000C000C1400008C1400008C1400008C14000080C
:1000D000C1400008C1400008FD3F000800000000CA
:1000E000C1400008C1400008C140000800000000F5
:1000F000000000000000000000000000C1400008F7
:1001000000000000C1400008C1400008C1400008D4
:1001100000000000000000000000000000000000DF
:1001200009400008C1400008C1400008C140000863
:10013000C1400008000000000000000000000000B6
:10014000000000000000000000000000C1400008A6
:10015000C1400008C1400008C14000081540000827
:10016000C1400008C140000800000000000000007D
:10017000000000000000000000000000000000007F
:1001800000000000C1400008000000000000000066
:04019000C140000862
:1001A00010B5054C237833B9044B13B10448AFF3B1
:1001B00000800123237010BDF40100200000000026
:1001C000D46700080C4B43B10C480D4910B5AFF390
:1001D00000800C48036823B910BD0A48036833B98E
:1001E0007047094B002BF7D0BDE810401847064B6D
:1001F000002BF5D0184700BF00000000D4670008AE
:10020000F8010020F40100200000000081F000410E
:1002100002E000BF83F0004330B54FEA41044FEAEB
:10022000430594EA050F08BF90EA020F1FBF54EA86
:10023000000C55EA020C7FEA645C7FEA655C00F022
:10024000E2804FEA5454D4EB5555B8BF6D420CDDF3
:100250002C4480EA020281EA030382EA000083EA76
:10026000010180EA020281EA0303362D88BF30BD16
:1002700011F0004F4FEA01314FF4801C4CEA11316C
:1002800002D0404261EB410113F0004F4FEA0333CB
:100290004CEA133302D0524263EB430394EA050F56
:1002A00000F0A780A4F10104D5F1200E0DDB02FAC5
:1002B0000EFC22FA05F2801841F1000103FA0EF259
:1002C000801843FA05F359410EE0A5F120050EF11F
:1002D000200E012A03FA0EFC28BF4CF0020C43FA50
:1002E00005F3C01851EBE37101F0004507D54FF05D
:1002F000000EDCF1000C7EEB00006EEB0101B1F5AD
:10030000801F1BD3B1F5001F0CD349085FEA3000F2
:100310004FEA3C0C04F101044FEA445212F5800FFD
:1003200080F09A80BCF1004F08BF5FEA500C50F19A
:10033000000041EB045141EA050130BD5FEA4C0C7D
:10034000404141EB010111F4801FA4F10104E9D106
:1003500091F0000F04BF01460020B1FA81F308BFFD
:100360002033A3F10B03B3F120020CDA0C3208DDC9
:1003700002F1140CC2F10C0201FA0CF021FA02F1A4
:100380000CE002F11402D8BFC2F1200C01FA02F114
:1003900020FA0CFCDCBF41EA0C019040E41AA2BF39
:1003A00001EB0451294330BD6FEA04041F3C1CDA01
:1003B0000C340EDC04F11404C4F1200220FA04F021
:1003C00001FA02F340EA030021FA04F345EA0301CB
:1003D00030BDC4F10C04C4F1200220FA02F001FA8D
:1003E00004F340EA0300294630BD21FA04F029460F
:1003F00030BD94F0000F83F4801306BF81F48011A8
:100400000134013D4EE77FEA645C18BF7FEA655C1A
:1004100029D094EA050F08BF90EA020F05D054EAEC
:10042000000C04BF1946104630BD91EA030F1EBFF1
:100430000021002030BD5FEA545C05D140004941F5
:1004400028BF41F0004130BD14F580043CBF01F5E8
:10045000801130BD01F0004545F0FE4141F47001CE
:100460004FF0000030BD7FEA645C1ABF19461046A9
:100470007FEA655C1CBF0B46024650EA013406BFAA
:1004800052EA033591EA030F41F4002130BD00BF69
:1004900090F0000F04BF0021704730B54FF4806426
:1004A00004F132044FF000054FF0000150E700BFA7
:1004B00090F0000F04BF0021704730B54FF4806406
:1004C00004F1320410F0004548BF40424FF00001F3
:1004D0003EE700BF42004FEAE2014FEA31014FEA36
:1004E00002701FBF12F07F4393F07F4F81F0605185
:1004F000704792F0000F14BF93F07F4F704730B5F4
:100500004FF4607401F0004521F0004120E700BF86
:1005100050EA010208BF704730B54FF000050AE00D
:1005200050EA010208BF704730B511F0004502D50E
:10053000404261EB41014FF4806404F132045FEA10
:10054000915C3FF4DCAE4FF003025FEADC0C18BFB5
:1005500003325FEADC0C18BF033202EBDC02C2F1AB
:10056000200300FA03FC20FA02F001FA03FE40EA3D
:100570000E0021FA02F11444C1E600BF70B54FF03D
:10058000FF0C4CF4E06C1CEA11541DBF1CEA13551F
:1005900094EA0C0F95EA0C0F00F0DEF82C4481EA87
:1005A000030621EA4C5123EA4C5350EA013518BFA7
:1005B00052EA033541F4801143F4801338D0A0FB94
:1005C00002CE4FF00005E1FB02E506F00042E0FB41
:1005D00003E54FF00006E1FB03569CF0000F18BF47
:1005E0004EF0010EA4F1FF04B6F5007F64F54074EF
:1005F00004D25FEA4E0E6D4146EB060642EAC62182
:1006000041EA55514FEAC52040EA5E504FEACE2EEE
:10061000B4F1FD0C88BFBCF5E06F1ED8BEF1004FF1
:1006200008BF5FEA500E50F1000041EB045170BD6D
:1006300006F0004646EA010140EA020081EA0301B1
:10064000B4EB5C04C2BFD4EB0C0541EA045170BDAD
:1006500041F480114FF0000E013C00F3AB8014F127
:10066000360FDEBF002001F0004170BDC4F1000470
:10067000203C35DA0C341BDC04F11404C4F12005F1
:1006800000FA05F320FA04F001FA05F240EA02004C
:1006900001F0004221F0004110EBD37021FA04F682
:1006A00042EB06015EEA430E08BF20EAD37070BD3C
:1006B000C4F10C04C4F1200500FA04F320FA05F09B
:1006C00001FA04F240EA020001F0004110EBD3709D
:1006D00041F100015EEA430E08BF20EAD37070BD0D
:1006E000C4F1200500FA05F24EEA020E20FA04F3E6
:1006F00001FA05F243EA020321FA04F001F0004195
:1007000021FA04F220EA020000EBD3705EEA430E05
:1007100008BF20EAD37070BD94F0000F0FD101F034
:100720000046400041EB010111F4801F08BF013C6D
:10073000F7D041EA060195F0000F18BF704703F0AB
:100740000046520043EB030313F4801F08BF013D32
:10075000F7D043EA0603704794EA0C0F0CEA1355EE
:1007600018BF95EA0C0F0CD050EA410618BF52EAA8
:100770004306D1D181EA030101F000414FF00000AE
:1007800070BD50EA410606BF1046194652EA4306BC
:1007900019D094EA0C0F02D150EA013613D195EA30
:1007A0000C0F05D152EA03361CBF104619460AD178
:1007B00081EA030101F0004141F0FE4141F4700182
:1007C0004FF0000070BD41F0FE4141F4780170BD72
:1007D00070B54FF0FF0C4CF4E06C1CEA11541DBFD7
:1007E0001CEA135594EA0C0F95EA0C0F00F0A7F8D9
:1007F000A4EB050481EA030E52EA03354FEA013106
:1008000000F088804FEA03334FF0805545EA131318
:1008100043EA12634FEA022245EA111545EA1065E0
:100820004FEA00260EF000419D4208BF964244F177
:10083000FD0404F5407402D25B084FEA3202B61A96
:1008400065EB03055B084FEA32024FF480104FF46A
:10085000002CB6EB020E75EB030E22BFB61A7546DE
:1008600040EA0C005B084FEA3202B6EB020E75EB71
:10087000030E22BFB61A754640EA5C005B084FEAD9
:100880003202B6EB020E75EB030E22BFB61A7546A6
:1008900040EA9C005B084FEA3202B6EB020E75EBB1
:1008A000030E22BFB61A754640EADC0055EA060E72
:1008B00018D04FEA051545EA16754FEA06164FEAB5
:1008C000C30343EA52734FEAC2025FEA1C1CC0D161
:1008D00011F4801F0BD141EA00014FF000004FF0EE
:1008E000004CB6E711F4801F04BF01430020B4F1AF
:1008F000FD0C88BFBCF5E06F3FF6AFAEB5EB030C67
:1009000004BFB6EB020C5FEA500C50F1000041EB63
:10091000045170BD0EF0004E4EEA113114EB5C0430
:10092000C2BFD4EB0C0541EA045170BD41F4801103
:100930004FF0000E013C90E645EA060E8DE60CEA0B
:10094000135594EA0C0F08BF95EA0C0F3FF43BAF28
:1009500094EA0C0F0AD150EA01347FF434AF95EADF
:100960000C0F7FF425AF104619462CE795EA0C0FC3
:1009700006D152EA03353FF4FDAE1046194622E790
:1009800050EA410618BF52EA43067FF4C5AE50EA6A
:1009900041047FF40DAF52EA43057FF4EBAE12E75A
:1009A0004FF0FF3C06E000BF4FF0010C02E000BF3B
:1009B0004FF0010C4DF804CD4FEA410C7FEA6C5C1E
:1009C0004FEA430C18BF7FEA6C5C1BD001B050EAC1
:1009D000410C0CBF52EA430C91EA030F02BF90EAAC
:1009E000020F0020704710F1000F91EA030F58BF6B
:1009F000994208BF90422CBFD8176FEAE37040F0CD
:100A0000010070474FEA410C7FEA6C5C02D150EA6A
:100A1000013C07D14FEA430C7FEA6C5CD6D152EA25
:100A2000033CD3D05DF8040B704700BF84461046EA
:100A300062468C461946634600E000BF01B5FFF7E9
:100A4000B7FF002848BF10F1000F01BD4DF808EDB9
:100A5000FFF7F4FF0CBF012000205DF808FB00BF8A
:100A60004DF808EDFFF7EAFF34BF012000205DF8E4
:100A700008FB00BF4DF808EDFFF7E0FF94BF012031
:100A800000205DF808FB00BF4DF808EDFFF7CEFF32
:100A900094BF012000205DF808FB00BF4DF808ED71
:100AA000FFF7C4FF34BF012000205DF808FB00BF42
:100AB0004FEA410C7FEA6C5C02D150EA013C0AD15A
:100AC0004FEA430C7FEA6C5C02D152EA033C02D14C
:100AD0004FF0000070474FF0010070474FEA4102AD
:100AE000B2F1E04324BFB3F5001CDCF1FE5C0DD98C
:100AF00001F0004C4FEAC0024CEA5070B2F1004FD6
:100B000040EB830008BF20F00100704711F0804FD8
:100B100021D113F13872BCBF01F00040704741F49D
:100B200080114FEA5252C2F11802C2F1200C10FAA1
:100B30000CF320FA02F018BF40F001004FEAC12385
:100B40004FEAD32303FA0CFC40EA0C0023FA02F329
:100B50004FEA4303CCE77FEA625307D150EA0133FF
:100B60001EBF4FF0FE4040F44000704701F00040CF
:100B700040F0FE4040F40000704700BF53B94AB94E
:100B8000002908BF00281CBF4FF0FF314FF0FF3095
:100B900000F07AB9ADF1080C6DE904CE00F006F86A
:100BA000DDF804E0DDE9022304B070472DE9F047E9
:100BB0008C460D460446089E002B51D18A421746AA
:100BC0006DD9B2FA82FEBEF1000F0BD0CEF1200C2F
:100BD00001FA0EF520FA0CFC02FA0EF74CEA050CAD
:100BE00000FA0EF44FEA174A250CBCFBFAF81FFA7C
:100BF00087F90AFB18CC45EA0C4508FB09F3AB4220
:100C00000AD9ED1908F1FF3280F02381AB4240F29E
:100C10002081A8F102083D44ED1AA4B2B5FBFAF018
:100C20000AFB105544EA054400FB09F9A14509D91E
:100C3000E41900F1FF3380F00A81A14540F20781F9
:100C400002383C44A4EB090440EA08400021002E8D
:100C500061D024FA0EF4002334607360BDE8F0879D
:100C60008B4207D9002E54D0002186E82100084687
:100C7000BDE8F087B3FA83F1002940F08E80AB42E3
:100C800002D3824200F2FA80841A65EB0305012048
:100C9000AC46002E3FD086E81010BDE8F08712B9B0
:100CA0000127B7FBF2F7B7FA87FEBEF1000F34D188
:100CB000EB1B3A0C1FFA87FC0121B3FBF2F8250C61
:100CC00002FB183345EA03450CFB08F3AB4207D996
:100CD000ED1908F1FF3002D2AB4200F2D18080461C
:100CE000ED1AA3B2B5FBF2F002FB105543EA05443E
:100CF0000CFB00FCA44507D9E41900F1FF3302D234
:100D0000A44500F2B8801846A4EB0C0440EA084061
:100D10009DE731463046BDE8F087CEF1200405FA64
:100D20000EF307FA0EF720FA04F83A0C25FA04F449
:100D300048EA0308B4FBF2F14FEA184502FB1144FC
:100D40001FFA87FC45EA044501FB0CF3AB4200FAAD
:100D50000EF409D9ED1901F1FF3080F08A80AB4221
:100D600040F2878002393D44EB1A1FFA88F5B3FB45
:100D7000F2F002FB103345EA034500FB0CF3AB42F3
:100D800007D9ED1900F1FF386FD2AB426DD90238A7
:100D90003D44EB1A40EA01418FE7C1F1200722FAF6
:100DA00007F88B4005FA01F448EA030320FA07FE2E
:100DB0004FEA134CFD404EEA040EB5FBFCF94FEA36
:100DC0001E440CFB19551FFA83F844EA054509FB3C
:100DD00008F4AC4202FA01F200FA01FA08D9ED185F
:100DE00009F1FF3043D2AC4241D9A9F102091D44B7
:100DF0002D1B1FFA8EFEB5FBFCF00CFB10554EEAC6
:100E0000054400FB08F8A04507D9E41800F1FF35B8
:100E100029D2A04527D902381C4440EA0940A4EB56
:100E20000804A0FB02894C45C6464D4615D312D096
:100E300056B1BAEB0E0364EB050404FA07F7CB4096
:100E40001F43CC40376074600021BDE8F08718462E
:100E5000F8E69046E0E6C245EAD2B8EB020E69EB4E
:100E600003050138E4E72846D7E7404691E7814685
:100E7000BEE7014678E702383C4445E7084608E704
:100E8000A8F102083D442BE7704700BF10F8012B82
:100E900011F8013B012A28BF9A42F7D0D01A7047B7
:100EA000034613F8012B002AFBD1181A01387047AA
:100EB00001F0FF01102A2BDB10F0070F08D010F80B
:100EC000013B013A8B422DD010F0070F42B3F6D10F
:100ED000F0B441EA012141EA014122F007047FF028
:100EE00000070023F0E80256083C85EA010586EA7F
:100EF000010685FA47F5A3FA87F586FA47F6A5FABB
:100F000087F68EB9EED1F0BC01F0FF0102F00702C6
:100F100032B110F8013B013A83EA010313B1F8D171
:100F20000020704701387047002D06BF3546033852
:100F3000073815F0010F07D1013015F4807F02BF8B
:100F4000013015F4C03F0130F0BC0138704700BFDC
:100F50004FEA410212F5001215D211D56FF47873E1
:100F6000B3EB625212D94FEAC12343F0004343EA84
:100F7000505311F0004F23FA02F018BF404270475F
:100F80004FF00000704750EA013005D111F00040E9
:100F900008BF6FF0004070474FF00000704700BF7F
:100FA00070B50E4B0E4D1B682A7806464FF47A70CA
:100FB000B0FBF2F0B3FBF0F000F064FB08B90F2EC9
:100FC00001D9012070BD0446024631464FF0FF3082
:100FD00000F016FB6E60204670BD00BF1C000020B4
:100FE0000000002008B50B4B1A6842F400721A602A
:100FF0001A6842F480621A601A6842F480721A60B9
:10100000032000F0EBFA0020FFF7CAFF02F036FEE3
:10101000002008BD003C0240034A044B11681B78C5
:101020000B441360704700BF300200200000002016
:10103000014B1868704700BF3002002038B50446E5
:10104000FFF7F6FF631C054602D0044B1B781C44D7
:10105000FFF7EEFF401B8442FAD838BD00000020A5
:10106000002800F0A480F8B5036C04463BB1236C63
:10107000DB060CD50023012084F83C30F8BD436426
:1010800080F83C3002F044FE236CDB06F2D4226C84
:1010900048492368484D22F4885222F0020242F067
:1010A000020222644A6822F440324A604A68606858
:1010B00002434A6059682069D4F808E0E768A26AE8
:1010C00021F4807159605E6846EA00265E605E68C1
:1010D00026F040765E60586840EA0E0058609868D6
:1010E00020F4006098609968AA4241EA070199607B
:1010F00046D09968E06A21F07061996099680A4366
:101100009A60996821F0405199609A6802439A6008
:101110009968A569206A21F0020199609A6842EAFB
:1011200045029A605A68002833D122F400625A605E
:10113000DA6AE569276B666922F47002DA62D86AB6
:10114000013D40EA0550D862986820F4007098602C
:10115000996841EA47219960996821F48061996012
:101160009A68002042EA86229A606064236C23F029
:10117000030343F001032364002384F83C30F8BDEB
:101180009A6822F070629A609A6822F040529A60DF
:10119000BEE742F40062616A5A605A6822F4604213
:1011A0005A605A68013942EA41325A60C0E7012068
:1011B000704700BF002301400100000FF0B590F818
:1011C0003C3083B00024012B019469D00568AB68E2
:1011D0000124DF0780F83C4014D4374B374E1C689D
:1011E000AB68A6FB0464A40C43F0010304EB4404C5
:1011F000AB600194019B2BB1019C013C0194019CCB
:10120000002CF9D1AB68DE0747D5046C24F4E06408
:1012100024F0010444F4807404646B685C0505D513
:10122000036C23F4405343F480530364036C244C55
:10123000244F13F480531CBF436C23F00603436414
:101240000646806B13464FF0000E1F4A86F83CE0BE
:10125000C2636FF02202C46407642A606C6844F0C1
:1012600080646C60AC6844F480740A46AC6005F13C
:101270004C0100F0CDFA154B5B68DB0609D13368F1
:10128000986810F0405008D19A6842F080429A6005
:1012900004E032680E4B9A4205D0002003B0F0BD46
:1012A000022003B0F0BD906810F04050F5D1936873
:1012B00043F080439360F1E71C00002083DE1B4372
:1012C0007914000839130008D512000800230140E2
:1012D00000200140836B1A6C12F0500F22D11A6C5F
:1012E000196842F4007210B51A648A6812F0405FFF
:1012F00014D19A6992B9CA6A12F4700F15D14A686A
:1013000022F020024A601A6C22F480721A641A6C6D
:10131000D20403D41A6C42F001021A64184602F097
:101320004FFA10BD9B6BDB6C18478A685005F5D4EB
:10133000E5E700BF704700BF08B5806BFFF7FAFF15
:1013400008BD00BF704700BF704700BF38B50368D5
:101350001A6859680446900701D58A0653D41A685A
:101360005968520701D50D061BD41A685968D00771
:1013700001D54A0606D41A685968900601D54A0173
:1013800069D438BD1A68D507F5D5236C43F480338A
:1013900023642046FFF7D6FF23686FF001021A602E
:1013A000E9E7226CD00603D4226C42F40052226496
:1013B0009A6812F4401F1ED19A6B12F4401F02D09B
:1013C0009A68510517D45A68520514D49A6812F0D5
:1013D000405F10D1A26972B95A6822F080025A6047
:1013E000236C23F480532364236CDD0503D4236C26
:1013F00043F001032364204600F0EEF823686FF009
:101400000C021A60B1E7226CD50603D4226C42F4B8
:10141000007222649A6812F0405F14D1A26992B9F6
:10142000DA6A12F4700F23D15A6822F020025A604F
:10143000236C23F480732364236CD90403D4236CBA
:1014400043F001032364204602F0BAF923686FF0E9
:1014500012021A6083E7626C6FF0200542F002020C
:10146000626420461D60FFF76FFF23681D6038BD72
:101470009A685005E7D4D7E7806B08B5402303642A
:10148000436C43F004034364FFF75EFF08BD00BFF5
:10149000F0B590F83C3083B00022012B019257D078
:1014A0000D680123092D2E4680F83C3029D80468A8
:1014B0008B68226905EB450E072707FA0EF722EA2B
:1014C00007022261226903FA0EF3134323614B687A
:1014D000062B2BD803EB8303626B053B1F2199403E
:1014E00022EA01026263626B06FA03F31343636349
:1014F000364B9C423ED0002380F83C30184603B067
:10150000F0BD04688B68E768AEB206EB46021E3A8F
:101510004FF0070E0EFA02FE27EA0E07E760E768B3
:1015200093403B43E3604B68062BD3D90C2B12D876
:1015300003EB8303A3F123011F22236B8A4023EAD9
:1015400002032363236B06FA01F119432163CFE7FA
:10155000022003B0F0BD03EB8302413AE36A1F218E
:10156000914023EA0103E362E36A06FA02F11943B8
:10157000E162BDE7122D23D0A5F11003012BBAD8EB
:10158000134A5368102D43F400035360B3D1114B39
:1015900002F1467202F52E321B6802F28332A2FB80
:1015A00003239B0C03EB83035B000193019B002B44
:1015B000A1D0019B013B0193019B002BF9D19AE73C
:1015C000034A536843F48003536094E700200140CA
:1015D000002301401C000020704700BF074AD36869
:1015E0004FF6FF010B40000243F0BF6300F4E060E0
:1015F00043F400330343D360704700BF00ED00E0C5
:10160000184B70B4DC68C4F30224C4F10706042E3E
:1016100004F1040328BF0426062B17D9033C012537
:10162000A540013D2A400123B340013B1940A140A0
:10163000002841EA02010CDB00F1604000F5614046
:101640000901C9B280F8001370BC7047002214462B
:10165000E9E7054B00F00F0009010344C9B2197610
:1016600070BC704700ED00E0FCEC00E000F01F01F2
:1016700001234009024A8B4042F82030704700BFE6
:1016800000E100E00138B0F1807F0ED2084B10B4C9
:10169000084C5860F02084F82300002207211046EF
:1016A0009A6019605DF8044B70470120704700BFD5
:1016B00010E000E000ED00E0044A136804280CBFCD
:1016C00043F0040323F004031360704710E000E0CC
:1016D000704700BF08B5FFF7FBFF08BDF8B504462B
:1016E000FFF7A6FC002C73D00222236884F8352073
:1016F0001A68002122F0010284F8341005461A60AD
:1017000005E0FFF795FC401B05283BD823681A68C5
:10171000D107F6D4A7686268E66825696169A0699F
:101720003A4332432A430A43E169256A1F68354E2A
:1017300002430A43616A2A433E40042942EA060200
:1017400027D01A605A6922F007021143DAB22E4DEF
:101750005961103AA5FB021212092C4823F47F7339
:10176000815CE16523F00303032A88BF04333F2231
:101770008A4001250021A36508469A60616584F8C6
:101780003550F8BD032320226265184684F83530B1
:10179000F8BDE56A216BA66A29430A431A605A69B3
:1017A00046F0040122F007021143002DCED088B18B
:1017B000B0F5005F18D0022E03D9032EC6D1EA017E
:1017C000C4D5012340226265184684F83530F8BD3F
:1017D0000120F8BD012E03D0F1D3022EB6D1EEE7E1
:1017E000B5F1C07FB2D1ECE7032EAFD801A252F819
:1017F00026F000BFC3170008BF170008C317000872
:10180000E11700083F8010F0ABAAAAAAF067000811
:10181000F0B490F83440012C0DD090F83540866D2E
:101820000125AC4280F8345008D0002380F83430D1
:101830000220F0BC70470220F0BC70470468022709
:10184000002580F8357045652568876825F4802572
:10185000402F256063600ABFA260A160E160C16D96
:1018600018BFE2603F238B40026CB360236843F0F3
:1018700016032360636943F0800363611AB1236830
:1018800043F008032360236843F001032360002032
:10189000CFE700BF90F83530022B03D0802343659B
:1018A000012070470268052380F83530136823F063
:1018B0000103136000207047F0B583B00023876DEB
:1018C0000193C36D3D68624908229A40154204465F
:1018D0000E6803D001680868400776D401229A4058
:1018E000154203D021684969080668D404229A4049
:1018F000154203D02168096889075AD410229A40FA
:10190000154203D02168086800073FD420229A407E
:10191000154203D021680868C00625D4636D0BB357
:10192000636DDA071AD50523216884F835300B6812
:10193000484A23F00103A2FB06020B60920A02E070
:101940000B68DB0704D5019B01339A420193F7D260
:101950000022012384F8342084F83530E36C0BB185
:101960002046984703B0F0BDBA6094F83520052AA8
:101970003BD00B6813F4802F0B6854D019035FD54C
:10198000E36B002BCAD020469847C7E7BA600A68C5
:1019900012F4802F0A6822D1D20503D40A6822F0FB
:1019A00008020A60226C002AB0D020469047E36DFE
:1019B000ACE7BA60626D42F0040262659EE7BA600D
:1019C000626D42F00202626590E7086820F0040050
:1019D0000860BA60626D42F0010262657EE7110341
:1019E000E0D5A26C002AE0D190E70A68206C22F0D2
:1019F00016020A604A6922F080024A6120B30A682E
:101A000022F008020A603F22216D02FA03F300204F
:101A10000122BB6084F8340084F835200029A1D06D
:101A2000204688479EE713F48073A9D10A680120F5
:101A300022F010020A6084F8343084F835009FE701
:101A4000636C002B9FD169E7A26C002AD7D1DAE73B
:101A50001C000020B5814E1B2DE9F04FD1F800C0CD
:101A6000DFF8CCE183B000254FF0010803E0013539
:101A7000102D00F0878008FA05F303EA0C02934268
:101A8000F5D14E6826F0100ABAF1020F7DD04FEA68
:101A900045090324D0F800B004FA09F4E44306F041
:101AA00003070BEA040B07FA09F70AF1FF3A47EAC2
:101AB0000B07BAF1010F076040F28E80C7688B6890
:101AC0003C4003FA09F32343C360F300CFD500235E
:101AD0000193524B514C5B6C43F480436364636CE1
:101AE00025F0030707F1804703F4804307F59C378F
:101AF000019305F00303019CD7F808909B000F2485
:101B00009C4029EA040A464CA04278D004F580643F
:101B1000A04276D0434CA04276D0434CA04278D02D
:101B2000424CA0420CBF4FF004094FF0070909FADC
:101B300003F343EA0A03BB60DEF80030D443F70343
:101B400054BF23401343CEF80030DEF80430B7030F
:101B500054BF23401343CEF80430DEF80830F702B8
:101B600054BF23401343CEF80830DEF80C30B602E1
:101B700005F1010554BF23401343102DCEF80C305E
:101B80007FF479AF03B0BDE8F08F4FEAD50900EBE1
:101B9000890905F00704D9F82070A4004FF00F0B55
:101BA0000BFA04FB27EA0B0A0F6907FA04F444EA6C
:101BB0000A04C9F820404FEA45090324D0F800A0E0
:101BC00004FA09F4E44306F003070AEA040A07FAF0
:101BD00009F747EA0A070760876807EA040ACF6837
:101BE00007FA09F747EA0A078760D0F804A0C6F3A6
:101BF00000172AEA0303AF401F4347605EE7002354
:101C000097E708FA03F394E74FF0020909FA03F3A0
:101C10008FE74FF0030909FA03F38AE7003802401F
:101C20000000024000080240000C02400010024088
:101C3000003C01400369194214BF01200020704795
:101C400002B9090481617047002800F0B2812DE9D2
:101C5000F0410368DD0782B004462FD5AB498A689E
:101C600002F00C02042A00F023818A6802F00C02C0
:101C7000082A00F019816368B3F5803F00F05A81AB
:101C8000B3F5A02F00F0E580A04D2A6822F4803241
:101C90002A602A6822F480222A60002B40F0E28029
:101CA000FFF7C6F9064605E0FFF7C2F9801B642876
:101CB00000F2F6802B689B03F6D423689F0728D593
:101CC000924A916811F00C0F00F09080916801F039
:101CD0000C01082900F08680E368002B00F00F81DA
:101CE0008B4B8A4D01221A60FFF7A2F9064605E0E8
:101CF000FFF79EF9801B022800F2D2802B6898071C
:101D0000F6D52B68226923F0F80343EAC2032B605F
:101D100023681A0752D4580730D57C4A136C13F045
:101D200080537ED000267B4D2B68D90540F1A880DA
:101D3000A368012B00F00481052B00F0C380734DD4
:101D40002A6F22F001022A672A6F22F004022A6712
:101D5000002B40F0C080FFF76BF941F288378046D6
:101D600006E0FFF765F9A0EB0800B84200F29880A2
:101D70002B6F9807F5D4002E40F0E880A369CBB113
:101D8000624DAA6802F00C02082A36D0022B624B80
:101D90004FF000021A6000F0DF80FFF749F92C468F
:101DA000054604E0FFF744F9401B022878D8236871
:101DB0009B01F7D4002002B0BDE8F081636903B352
:101DC000564B524D01221A60FFF732F9064604E0E5
:101DD000FFF72EF9801B022862D86B6F9B07F7D59F
:101DE000236898E7526856023FF576AF474A126873
:101DF000950722D5E268012A1FD0012002B0BDE874
:101E0000F081464A414D1360FFF712F9064604E09F
:101E1000FFF70EF9801B022842D86B6F9F07F7D49B
:101E2000DEE70193136C43F080531364136C03F0EB
:101E300080530193019B012675E7344920690A68A4
:101E400022F0F80242EAC0020A601A077FF563AF87
:101E5000B4E72E4B1A6842F480221A601A6842F4E2
:101E600080321A60FFF7E4F8284D064604E0FFF7D9
:101E7000DFF8801B642813D82B689A03F7D51CE77A
:101E80002B6843F480732B60FFF7D2F807462B686A
:101E9000DA053FF54DAFFFF7CBF8C01B0228F6D9A6
:101EA000032002B0BDE8F0814A6850027FF5E3AE3E
:101EB000164A126891037FF501AF6268002A7FF429
:101EC000FDAE9AE7114B1A6F42F004021A671A6FBF
:101ED00042F001021A67FFF7ABF80C4D804641F261
:101EE000883705E0FFF7A4F8A0EB0800B842D7D880
:101EF0002B6F9B07F6D5002E3FF440AF26E0044A37
:101F0000024D1360FFF794F806460EE000380240D9
:101F1000000047420070004060004742800E474288
:101F2000FFF786F8801B0228BAD82B689907F7D4E8
:101F30002368EEE6204A136843F48033136091E788
:101F40001D4A136F43F001031367C4E71A4A136C69
:101F500023F08053136411E7FFF76AF8064604E0A4
:101F6000FFF766F8801B02289AD82B689901F7D4EE
:101F7000E369276A666AA26AE06A10490E4C3B432D
:101F800043EA8613520843EA0063013A43EA0243F4
:101F900001226B600A60FFF74BF8054605E0FFF78A
:101FA00047F8401B02283FF67BAF23689A01F6D51D
:101FB00000E70120704700BF003802406000474240
:101FC000174908B58B6803F00C03042B1BD0082BB2
:101FD00017D14A684B6813F4800302F03F0214D112
:101FE00049681048C1F38811A1FB0001FEF7C6FD46
:101FF0000B4B5B68C3F3014301335B00B0FBF3F0B1
:1020000008BD084808BD084808BD4B680648C3F32A
:102010008813A3FB00010023FEF7B0FDE8E700BF33
:10202000003802400024F40040787D0160B1484A45
:10203000136803F00F038B4208D2CBB213701368FE
:1020400003F00F03994201D00120704703682DE986
:10205000F0419D0714D55C0704D53E4CA26842F4BC
:10206000E052A2601A0704D53A4CA26842F46042DA
:10207000A260384C8568A26822F0F0022A43A26070
:10208000DF0704460D4622D54268012A5BD0931E25
:10209000012B304B1B6850D9990725D52D4EB368BD
:1020A00023F003031343B360FEF7C2FF41F2883706
:1020B000804605E0FEF7BCFFA0EB0800B8423FD821
:1020C000B368626803F00C03B3EB820FF2D1204ACD
:1020D000136803F00F039D4209D2EBB2137013682B
:1020E00003F00F039D4202D00120BDE8F081236878
:1020F0005A0706D51749E0688A6822F4E05202437D
:102100008A601B0707D5134A2169936823F460434B
:1021100043EAC1039360FFF753FF0E4B0E499B68E0
:102120000E4AC3F30313CB5C20FA03F300201360C1
:10213000FEF736FF0020BDE8F0819801AED4D3E76A
:102140000320BDE8F081034B1B689E03A6D4CBE7B8
:10215000003C024000380240F86700081C000020E4
:10216000014B1868704700BF1C000020044B054A53
:102170009B680549C3F382230868D35CD840704745
:1021800000380240086800081C000020044B054A83
:102190009B680549C3F342330868D35CD840704755
:1021A00000380240086800081C000020F0B5046AEE
:1021B000D1F808E00E68124D24F001040462036AAD
:1021C0004768826923F0020322F07302A84243EABF
:1021D0000E0342EA060205D0496847608261416306
:1021E0000362F0BDCE684C698D6923F0080327F4C3
:1021F000407733432C4323F004032743ECE700BF2D
:1022000000000140F0B5046AD1F808E00E68134DF3
:1022100024F480740462036A4768C26923F400737B
:1022200022F07302A84243EA0E2342EA060205D0D6
:1022300049684760C261C1630362F0BDCE684C6902
:102240008D6923F4006327F4405743EA06232C43A7
:1022500023F4806347EA0417EAE700BF0000014067
:10226000F0B4046A8F680E680E4D24F48054046242
:10227000036A4468C26923F4005322F4E642A84288
:1022800043EA073342EA062206D049684460C26145
:10229000F0BC0164036270474D6924F4804444EA51
:1022A0008514F2E7000001400168022210B480F8B2
:1022B00039200A680124034622430A60002083F87B
:1022C00039405DF8044B704703680122186A02FA2E
:1022D00001F120EA010010B418621A6A084C114397
:1022E000A342196207D01A685DF8044B42F001025C
:1022F00000201A6070475A6C42F400425A64F2E7B8
:102300000000014090F83830012B40D002220368D1
:10231000F0B480F839209A680C6822F47F4222F0E9
:1023200077020125402C80F838509A6073D018D974
:10233000702C60D02DD9B4F5805F57D0B4F5005F14
:102340001CD18A684D68CC6899682A4342EA042205
:1023500021F47F410A439A609A6842F480429A606D
:102360000CE0102C32D038D9202C6CD0302C05D178
:102370009A6822F0700242F037029A60002301222C
:1023800080F8392080F83830F0BC184670470220B9
:102390007047502C5ED0602CF0D11C6A4D68CE681E
:1023A00024F010041C6299691A6A21F4704122F029
:1023B000A00242EA051241EA063199611A629A685E
:1023C00022F0700242F067029A60D7E79A6822F022
:1023D000700242F017029A60D0E7002CCED19A68C2
:1023E00022F0700242F007029A60C7E79A6822F072
:1023F00007029A60C2E78A684D68CC6899682A43E8
:1024000042EA042221F47F410A439A609A6842F02A
:1024100077029A60B2E71D6A1E6A4C68CF6826F0A0
:1024200001061E629A6925F00A0122F0F00242EAD2
:10243000071221439A6119629A6822F0700242F0F1
:1024400047029A609AE79A6822F0700242F02702E7
:102450009A6093E71D6A1E6A4C68CF6826F00106F1
:102460001E629A6925F00A0122F0F00242EA071280
:1024700021439A6119629A6822F0700242F0570271
:102480009A607BE7704700BF704700BF704700BF8E
:10249000704700BF704700BF03681A69910710B505
:1024A000044602D5DA68920762D41A69500702D549
:1024B000DA68510749D41A69120702D5DA68100799
:1024C00031D41A69D20602D5DA68D00618D41A694E
:1024D000D10702D5DA68D2076BD41A69100602D583
:1024E000DA6811066DD41A69520602D5DA68500608
:1024F00057D41A69910602D5DA68920649D410BDFC
:102500006FF010021A61DB69082213F4407F227613
:10251000204661D1FFF7B8FF2046FFF7B9FF002240
:1025200023682276D3E76FF008021A61DB69042280
:1025300099072276204655D1FFF7A6FF2046FFF7E0
:10254000A7FF002223682276BBE76FF004021A611E
:102550009B69022213F4407F227620463FD1FFF789
:1025600093FF2046FFF794FF002223682276A2E71C
:102570006FF002021A619B6901229B07027628D143
:10258000FFF782FF2046FFF783FF002223682276B1
:102590008BE76FF0200220461A61BDE8104000F082
:1025A0006BB96FF040021A612046FFF773FF236892
:1025B0009FE76FF001021A612046FFF763FF23686F
:1025C0008BE76FF080021A61204600F057F923680C
:1025D00089E7FFF75BFFD8E7FFF758FF9FE7FFF7B3
:1025E00055FFC1E7FFF752FFABE700BF264A03687C
:1025F0009042F0B434D0B0F1804F20D0A2F57C42AC
:1026000090421CD002F58062904218D002F58062A0
:10261000904214D002F59A32904214D002F58062B2
:10262000904210D002F5806290420CD08C680A680B
:1026300003600123C4628262F0BC436170474A6850
:1026400023F070031343CD688C680A6823F4407349
:102650002B4303600123C4628262F0BC4361704774
:102660004F68CE688D680C680A6923F070033B439D
:1026700023F44073334303600123C5628462026321
:10268000F0BC4361704700BF00000140B8B190F852
:10269000393010B503F0FF0204465BB1022384F821
:1026A00039302068211DFFF7A1FF012384F839305C
:1026B000002010BD80F8382001F086FBEEE70120F5
:1026C000704700BFB8B190F8393010B503F0FF0281
:1026D00004465BB1022384F839302068211DFFF7DE
:1026E00085FF012384F83930002010BD80F83820A0
:1026F00001F0B0FBEEE70120704700BFF0B5046ABF
:10270000D1F808E00E68134D24F010040462036A47
:102710004768826923F0200322F4E642A84243EA94
:102720000E1342EA062205D0496847608261816340
:102730000362F0BDCE684C698D6923F0800327F4F5
:10274000406743EA06132C4323F0400347EA84071B
:10275000EAE700BF0000014038B590F83830012B9F
:102760002BD00D4602230121044680F8381080F852
:1027700039300C2A1AD8DFE802F03519191907196F
:10278000191947191919220029460068FFF7B6FFE1
:1027900023682869996941F400619961996921F474
:1027A000806199619A6942EA00229A6101230020BE
:1027B00084F8393084F8380038BD022038BD294605
:1027C0000068FFF74DFD23682869D96941F400616D
:1027D000D961D96921F48061D961DA6942EA0022BC
:1027E000DA61E3E729460068FFF7E0FC236828691F
:1027F000996941F008019961996921F00401996191
:102800009A6902439A61D1E729460068FFF7FAFC0A
:1028100023682869D96941F00801D961D96921F093
:102820000401D961DA690243DA61BFE790F8383010
:10283000012B1ED002460220136870B482F83900C2
:102840005C6824F0700491E860005C60586828437C
:102850005860986820F080009860996800240125ED
:1028600031439960204682F8395082F8384070BC74
:1028700070470220704700BF704700BF704700BF1D
:102880002DE9F047046822698246C068DAF81C1016
:10289000DAF80830DAF81060DAF8145022F440520E
:1028A00002432261E268DAF81800334322F4164248
:1028B0002B4322F00C020B431343E360636923F4C0
:1028C00040730343B1F5004F6361AB4B61D09C4251
:1028D00000F0018103F580639C4200F0FC80FFF76B
:1028E00045FCA64FDAF8043000EB800000EB8000D6
:1028F0009B00B0FBF3F3A7FB03235B091D01FFF76C
:1029000035FCDAF8043000EB80009B0000EB80001F
:10291000B0FBF3F6FFF72AFCDAF8042000EB8000A6
:10292000930000EB8000B0FBF3F3A7FB03234FF011
:1029300064095B0909FB13631B013233A7FB032303
:102940005B0903F0F006FFF711FCDAF8042000EB56
:102950008000930000EB8000B0FBF3F8FFF706FC6B
:10296000DAF8043000EB80009B0000EB8000B0FB45
:10297000F3F0A7FB0030400909FB10831B01323341
:10298000A7FB0323C3F3431333432B44A360BDE8E6
:10299000F0879C425DD003F580639C4259D0FFF7DD
:1029A000E5FB764FDAF8043000EB800000EB8000A6
:1029B0005B00B0FBF3F3A7FB03235B091E01FFF7EA
:1029C000D5FBDAF8043000EB80005B0000EB800000
:1029D000B0FBF3F5FFF7CAFBDAF8042000EB800048
:1029E000530000EB8000B0FBF3F3A7FB03235B096C
:1029F0004FF0640909FB1353DB003233A7FB0323B9
:102A00001B0903F4F875FFF7B1FBDAF8042000EBBB
:102A1000800000EB80005300B0FBF3F8FFF7A6FB4B
:102A2000DAF8043000EB800000EB80005B00B0FBC4
:102A3000F3F3A7FB03235B0909FB1383DB003233AA
:102A4000A7FB0323C3F3421333442B44A360BDE825
:102A5000F087FFF79BFB494FDAF8043000EB80006A
:102A600000EB80005B00B0FBF3F3A7FB03235B09E3
:102A70001E01FFF78BFBDAF8043000EB80005B00EF
:102A800000EB8000B0FBF3F5FFF780FBDAF80420E1
:102A900000EB8000530000EB8000B0FBF3F3A7FBDA
:102AA00003234FF064095B0909FB1353DB00323346
:102AB000A7FB03231B0903F4F875FFF767FBDAF89C
:102AC000042000EB8000530000EB8000B0FBF3F823
:102AD000FFF75CFBA4E7FFF759FB284FDAF8043057
:102AE00000EB800000EB80009B00B0FBF3F3A7FB42
:102AF00003235B091D01FFF749FBDAF8043000EB03
:102B000080009B0000EB8000B0FBF3F6FFF73EFB7C
:102B1000DAF8042000EB8000930000EB8000B0FBAB
:102B2000F3F3A7FB03234FF064095B0909FB13636D
:102B30001B013233A7FB03235B0903F0F006FFF709
:102B400025FBDAF8042000EB8000930000EB800006
:102B5000B0FBF3F8FFF71AFBDAF8043000EB800063
:102B600000EB80009B00B0FBF3F3A7FB03235B09A2
:102B700009FB138302E700BF001001401F85EB51E2
:102B80002DE9F04107460E4690461D463C6801E09F
:102B90006B1C06D1206836EA0003F9D10020BDE89D
:102BA000F08135B1FEF744FAA0EB08008542EDD282
:102BB0003C68E36823F4D073E3606369202223F068
:102BC000010300216361032087F8392087F838105A
:102BD00087F83A20BDE8F08160B338B590F8393015
:102BE000044603F0FF0203B32268242384F839303B
:102BF000D36823F40053D3602046FFF741FE2368D7
:102C00001A6922F490421A615A6922F02A025A6122
:102C1000DA680025202142F40052DA602846E56394
:102C200084F8391084F83A1038BD80F8382001F063
:102C300063F9D9E7012070472DE9F0430F4690F87A
:102C40003910202983B003D0022003B0BDE8F083FF
:102C5000002F3ED0002A3CD0984690F83830012B07
:102C60000446F1D0002001212123E06384F83810CC
:102C700084F839300192FEF7DBF9019AA28481468B
:102C8000E28406E0FFF77CFF28BB23683A785A60AD
:102C90000137E58CADB243464A4680212046E5B176
:102CA000E58CA668013DADB2B6F5805FE584E9D15B
:102CB00043464A4680212046FFF762FF58B93B88C9
:102CC00021682269C3F308034B60002AE0D1023770
:102CD000DFE70120B9E70320B7E74021FFF750FF06
:102CE0000028F8D1202384F8380084F83930ACE784
:102CF00090F83930202B01D002207047B9B1B2B121
:102D000090F83830012BF7D030B400230568C28426
:102D10002124C36380F83940EC68016244F08004E8
:102D2000828480F838301846EC6030BC704701204F
:102D3000704700BF704700BF704700BF8368B3F59E
:102D4000805F28D0036973B10368826A5B68511C95
:102D500003F07F0381621370C38D013B9BB2C38577
:102D600043B100207047836A0268591C526881622F
:102D70001A70F1E70268D16821F4907110B5D16042
:102D80005169202421F00101516180F83A40FFF798
:102D9000D3FF002010BD0269836A3AB90268526805
:102DA000C2F3080223F8022B8362D5E70268526857
:102DB000D2B223F8012B8362CEE700BF704700BF79
:102DC00003681A6870B51607DD685969044649D06A
:102DD00011F0010152D0D60705D5E80503D5E06B07
:102DE00040F00100E06356077AD5002900F08480A6
:102DF000E16B900741F00201E16376D5E16B41F0B0
:102E00000401E163110772D4E16B002929D0910616
:102E100005D5AA0603D594F83A20222A7CD05D690C
:102E2000E16B0E0702D415F040057AD0DA6822F47F
:102E30009072DA605A69202122F001025A6184F806
:102E40003A105A6955065ED55A69606B22F0400205
:102E50005A61002857D03B4B0365FEF71BFD002845
:102E600055D170BD96060CD5A9060AD590F83A3012
:102E7000222BF6D1BDE87040FFF760BF15F4907FBC
:102E8000A9D110060ED45606EBD56D06E9D5DA6841
:102E9000202122F04002DA60204684F83910FFF742
:102EA00049FF70BD2906EED594F83920212AD8D1E2
:102EB000A268B2F5805F226A38D0511C2162127874
:102EC0005A60E28C013A92B2E284002AC9D1DA68EF
:102ED00022F08002DA60DA6842F04002DA6070BD07
:102EE00096070BD5002989D18EE711078CD5E16BA8
:102EF00041F00801E16387E7900785D4100783D587
:102F0000002981D0F3E72046FFF758FF70BD606BC2
:102F1000BDE87040036D18472046FFF70FFF236898
:102F20007DE72046FFF74AFFE56370BD1188206901
:102F3000C1F30801596010B902322262C1E70132BF
:102F40002262BEE7492F000808B5836B0022DA85AC
:102F50001846DA84FFF732FF08BD00BF9FED0A6A0A
:102F6000DFED0A6A0B1F183153F8042F07EE902A81
:102F7000F8EE677A8B4267EE867A87EEA67AA0EC47
:102F8000017AF1D1704700BF00404E4500F07F4507
:102F90002DE9F0432DED068B064683B000690C4603
:102FA00015469946FDF796FA70A3D3E90023FDF77D
:102FB00031F970A3D3E90023FDF70AFCFDF78EFD7C
:102FC00008EE900A7069FDF785FA68A3D3E900233B
:102FD000FDF720F967A3D3E90023FDF7F9FBFDF71F
:102FE0007DFD08EE100AB069FDF774FA5FA3D3E91E
:102FF0000023FDF70FF95FA3D3E90023FDF7E8FBFA
:10300000FDF76CFD09EE100A29EE09AAF0EE4A7AE6
:10301000E8EE087A17EE900AFDF75CFA41EC100B27
:1030200001F00EFA53EC102B18EE900ACDE90023B4
:10303000FDF750FADDE90023FDF7CAFB41EC100B68
:1030400001F042F8002251EC100B474BFDF796FAC5
:1030500041A3D3E90023FDF7BBFB68EEA89AFDF777
:103060003DFD7AEE297A804617EE900AFDF732FA96
:1030700041EC100B01F0E4F953EC102B18EE100AA0
:10308000CDE90023FDF726FADDE90023FDF7A0FBDB
:1030900041EC100B01F018F8002251EC100B324BF0
:1030A000FDF76CFA2CA3D3E90023FDF791FBE8EEC2
:1030B000089AFDF713FD074619EE900AFDF70AFA84
:1030C00041EC100B01F0BCF919EE100A8DED000B6C
:1030D000FDF700FA9DED000B02460B4651EC100B7C
:1030E000FDF776FB41EC100B00F0EEFF002251ECF7
:1030F000100B1D4BFDF742FA17A3D3E90023FDF790
:1031000067FBFDF7EBFCD4ED007A77EEE87A064634
:10311000F0EEE77A17EE900AFDF7DCF910A3D3E999
:103120000023FDF7BBFC88B9012389F80430C4ED06
:10313000008A84ED018A84ED029AC5F800806F60F0
:10314000AE6003B0BDEC068BBDE8F083002389F8C8
:103150000430ECE7AFF30080C58F31772D210940B3
:10316000CDCCCCCCCCCCF43F00806640000000003D
:1031700000C899400000000000A07440000000005A
:103180002DE9F0472DED028B0FF20019D9E90089E6
:1031900040A7D7E900679FED368A86B0054604460A
:1031A00000F1100A2068FDF795F942464B46FDF7FD
:1031B00031F832463B46FDF70BFBFDF78FFC07EE7F
:1031C000900AF5EE407AF1EE10FA48BFF0EE487A38
:1031D000E4EC017AA245E5D12868FDF77BF90646C3
:1031E000E8680F46FDF776F9CDE90401A868FDF718
:1031F00071F9CDE902016868FDF76CF93B4632468A
:10320000CDE900011B491C4801F0E2FE1A48FDF718
:1032100047FE194982B21948FFF76AFD2868FDF791
:1032200059F90646E8680F46FDF754F9CDE904015F
:10323000A868FDF74FF9CDE902016868FDF74AF982
:1032400032463B46CDE900010D490E4801F0C0FE73
:103250000C48FDF725FE0B4982B20B484FF0FF33B7
:1032600006B0BDEC028BBDE8F047FFF7E5BC00BF40
:1032700000000000106800089C02002044030020A9
:10328000286800083402002004030020EC51B81E16
:1032900085578240F6285C8FC21D63400000000005
:1032A0002DE9F04FDFF854B1D1ED007ADBF80030B2
:1032B0002DED028B9342F5EE407A18BFCBF800203B
:1032C000F1EE10FA83B01ED090ED017AD0ED027AC3
:1032D00077EE277A824617EE900AFDF7FBF843A3B4
:1032E000D3E9002306460F46FDF7D8FB58B1DAF8BC
:1032F0000000FDF7EFF83DA3D3E9002304460D4697
:10330000FDF7CCFB20B903B0BDEC028BBDE8F08F1C
:1033100038A3D3E9002320462946FDF72FF92B4691
:10332000224680468946CDE900672B492B4801F0AB
:103330004FFE2A48FDF7B4FD284982B22848FFF71E
:10334000D7FCDAED027A9AED018A42464B462046D6
:10335000294638EE278AFCF75DFFFDF7BFFB07EE35
:10336000900AF4EEC87AF1EE10FA0ED542464B46BA
:1033700020462946FCF750FFFDF7B0FB07EE900A08
:10338000F4EEC87AF1EE10FA13DC0822154914485D
:10339000FFF7AEFCDBF8002000231370DBF8002001
:1033A0005370DBF80020937003B0BDEC028BBDE8D6
:1033B000F08F06220C490A48FFF79AFCDBF8002040
:1033C00000231370DBF800205370DBF8003001227B
:1033D0009A7098E7AFF300804C6800089C020020C8
:1033E0004403002070680008686800089A99999959
:1033F0009999B93F9A9999999999C93F980200204A
:1034000070B418491848002311F8135010F81340ED
:103410005A00A54203F1010301EB0206DBB20244AC
:1034200017D174785278944213D1042BECD10F4AFF
:103430001068012303701268537000230B704B70E7
:103440008B70CB700B714B718B71CB710B7270BC2D
:103450007047064B1A68012010701B6800225A70D2
:10346000EBE700BF100200200800002098020020B7
:10347000084B1A7A197B03F81210511CC9B203EBDE
:103480004202587B19720429507000D07047FFF730
:10349000B7BF00BF100200202DE9F041684BD2ED0C
:1034A000007A1D68F5EE407A8D422DED028B18BF33
:1034B0001960F1EE10FA5AD090ED008AB0EE087A59
:1034C000B4EEC78AF1EE10FA0446F0EE487A3CDD1D
:1034D000D0ED018AF7EE007AF4EEE78AF1EE10FA09
:1034E00000F19480F7EE007AB4EEE78AF1EE10FA7C
:1034F00070D4544DF7EE007AF4EEE78AF1EE10FA4C
:1035000006DD514E514FB1683846FDF7BFFC90BB08
:10351000F0EE487AB7EE007AF4EEC77AF1EE10FAE0
:1035200000F18A802A7A4A494A4801F051FD494807
:10353000FDF7B6FCBDEC028B82B24FF0FF3345497C
:103540004548BDE8F041FFF777BB3E4DB7EE007A46
:10355000B4EEC78AF1EE10FA16D4B0EE087AB4EEE3
:10356000C78AF1EE10FAD5DDD4ED018AC2E7BDECD1
:10357000028BBDE8F0810123B7602B736B73FFF7FB
:1035800077FFD4ED007AC5E7D4ED018AF0EE007A3A
:10359000F4EEE78AF1EE10FA24DCF0EE087AB4EEED
:1035A000E78AF1EE10FAA5DCF7EE007AF4EEE78A8E
:1035B000F1EE10FAB6D5244C284EA1683046FDF73E
:1035C00065FC0028AED00023A6602B736B73FFF759
:1035D0004FFFA7E7F0EE007AF4EEE78AF1EE10FA7B
:1035E00087DD184D184E1E4FB1683846FDF74EFC6A
:1035F0000028D2D000220123B7602A736B73FFF733
:1036000037FF94ED008AF0EE487AA6E70E4E154F8C
:10361000B1683846FDF73AFC00283FF463AF094D26
:10362000B760012200232A736B73FFF721FF94ED2B
:10363000008AF0EE487A89E7D4ED018AB4E700BF4A
:103640009802002010020020080000209468000862
:10365000AC6800089C02002044030020A068000819
:10366000886800087C680008D0ED007AB6EE007A21
:10367000F0EEE77AF4EEC77AF1EE10FA0BDCD0ED5B
:10368000017AF0EEE77AF4EEC77AF1EE10FACCBFE9
:103690000120002070470120704700BF10B594B092
:1036A0000022224B0192186C214940F0805018648E
:1036B0001B6C03F080530193019B02920B6823F46F
:1036C000404343F400430B600B680E9203F4404305
:1036D000029302210122102308A8029C08910B9258
:1036E0000C93FEF7B1FA00B1FEE7034601460F2244
:1036F00003A804930593069307930392FEF796FCA1
:10370000044600B1FEE7FEF72BFD0A4BA3FB003099
:103710008009FDF7B7FF0420FDF7CEFF22462146C2
:103720004FF0FF30FDF76CFF14B010BD00380240C1
:1037300000700040D34D62101E4A1178012918D044
:103740009378012B2CD051B9527842B93BB91A4920
:1037500009684FF47A724A631046114603E04FF449
:103760007A7318461946154A126851639063D363F9
:1037700070475378012B07D00F4B1A684FF47A71BA
:10378000002351631846EEE71379012BF4D10A4B5D
:10379000196800224A63134611464FF47A70E2E733
:1037A000054A126800231846536319464FF47A738A
:1037B000D9E700BF1400002080040020FC03002093
:1037C00008B511491148FFF7C9FB114B114A1249BD
:1037D0000E48FFF7DDFB0D48FFF7D2FC0E48FFF760
:1037E00043FF40B90A4A0D490848FFF759FDBDE8B3
:1037F0000840FFF7A1BF094A05490448FFF74CFEFE
:10380000BDE80840FFF798BF64050020840300204E
:1038100014000020DC0300201C05002020020020F2
:103820000D4870B54FF400510646FEF703FA002527
:1038300004460320FDF702FC4FF400513046FEF72A
:10384000F9F9A042034602D001251C46F1E70135F3
:103850001D2DFADD70BD00BF000802402DE9F043C8
:103860008FB000249B4DFDF7BDFBFFF717FF0294BF
:103870002B6B994843F004032B632B6B03F0040379
:103880000293029B03942B6B43F001032B632B6B7E
:1038900003F001030393039B04942B6B43F0020397
:1038A0002B632B6B03F00203049322464FF4004179
:1038B000049BFEF7C5F9224620218848FEF7C0F98F
:1038C0004FF4005307A984480793012608940994EC
:1038D000FEF7C2F84FF4004307A97F480793099405
:1038E0000A940896FEF7B8F8202307A97B480793A7
:1038F000089609940A94FEF7AFF801942B6B43F4F1
:1039000080032B632B6B03F4800322462146019333
:103910003820019BFDF774FE3820FDF7A7FE704BA1
:10392000A5F5FA354FF4E1310C2218469C60DC60B5
:103930001C619C61DC611D6059605A61FFF74CF9A4
:1039400000B1FEE7674C684F606003464FF080515E
:103950004FF0C06220460725A360A3612362E360A5
:103960006361266126632760E162A262E561FDF77B
:1039700077FB034600B1FEE707A9204607930896A8
:103980000996FDF785FD00B1FEE7022307A9204651
:1039900007960893FDF77CFD00B1FEE7042703239B
:1039A00007A9204607970893FDF772FD00B1FEE7CF
:1039B000062607A9204608970796FDF769FD00B17E
:1039C000FEE7052307A9204607950893FDF760FD4C
:1039D00000B1FEE7082307A9204608960793FDF7E4
:1039E00057FD00B1FEE70923204607A90895079374
:1039F000FDF74EFD024600B1FEE73C4B4FF080451F
:103A000041F63F74F92118469A601A611D605C60A6
:103A1000D960FEF73BFE00B1FEE74FF4805307A9E3
:103A200032480793FEF76EFC034600B1FEE7202202
:103A300005A92E4806930592FEF7F8FE034600B14D
:103A4000FEE72B4C2B4DA0604FF4C8614FF47A7207
:103A50002046236125606160E260FEF733FE034685
:103A600000B1FEE705A9204605930693FEF7DEFEAA
:103A7000034600B1FEE70246602707A920460893E7
:103A800009930B930797FEF767FE00B1FEE7042248
:103A900007A92046FEF760FE00B1FEE7082207A94D
:103AA0002046FEF759FE064600B1FEE7124D2046BD
:103AB00000F0E8F91149AE6043F67F6240F2E73367
:103AC00028462E6185E80600EB60FEF7DFFDB8B101
:103AD000FEE700BF0038024000080240000002403C
:103AE0004403002038040020002001402805002065
:103AF000FC03002000040040A0030020004401401B
:103B00002846FEF7DFFD034600B1FEE74FF43C74A4
:103B100028461A4607A9079709930B930894FEF7BE
:103B20001BFE00B1FEE7454800F0ACF9444B454AA6
:103B30001A600C21002218464FF416545C6059613B
:103B40009A60DA601A619A61DA61FFF745F8034614
:103B500000B1FEE73C4C3D4960604FF47A7220466C
:103B6000A36023612160E260FEF790FD00B1FEE7F3
:103B70002046FEF7A7FD034600B1FEE7024607A96F
:103B800060252046089309930B930795FEF7E4FD03
:103B9000064600B1FEE7204600F074F92C482D4D92
:103BA000DFF8CC90DFF8CC802B4FFEF77DFB0722AF
:103BB0002A492B48FDF702FB31462A48FEF784FBD1
:103BC00004212848FEF780FB08212648FEF77CFBED
:103BD00031462046FEF778FBFFF722FE0028FBD196
:103BE00020214046FEF726F8B0FA80F252094046FE
:103BF0002021FEF725F895ED016AD5ED007AD5ED87
:103C0000026A95ED037A77EE867A77EEA67A77EEFA
:103C1000877AC9ED007A17EE900AFCF75BFC024642
:103C20000B463846104901F0D3F93846FDF738F90C
:103C3000394682B20D48FFF75BF8CDE7A0030020BC
:103C400004030020001401408004002000480140CB
:103C50002805002084030020E803002064050020DC
:103C600038040020FC030020BC6800084403002046
:103C70002002002000000240FEE700BF10B582B025
:103C80000024224B00945A6C42F480425A645A6CCD
:103C900002F480420092009A01941A6C42F0805221
:103CA0001A641B6C03F0805301930320019BFDF702
:103CB00095FC224621466FF00B00FDF7A1FC224641
:103CC00021466FF00A00FDF79BFC224621466FF06B
:103CD0000900FDF795FC224621466FF00400FDF730
:103CE0008FFC224621466FF00300FDF789FC224637
:103CF00021466FF00100FDF783FC224621464FF07C
:103D0000FF30FDF77DFC02B010BD00BF003802405F
:103D1000274B02689A4200D07047F0B587B0002662
:103D200003F58C3300965A6C224D42F480725A642B
:103D30005B6C039603F480730327009301A9D323DC
:103D400004461D48009A01930297FDF785FE01A9DC
:103D50001A480197029703964FF48067FDF77CFE9F
:103D6000DFF860E06E604FF480514FF480424FF412
:103D700080732846AE60EE602E626E62C5F800E089
:103D80002F616961AA61EB61FDF7A8FC58B90022B7
:103D9000A56311461220AC63FDF732FC1220FDF73B
:103DA00065FC07B0F0BD81210548FFF765FFEEE730
:103DB00000200140BC04002000000240000402403A
:103DC000CC6800081064024000B50368B3F1804F6E
:103DD00085B008D01C4A934215D01C4A93421FD08C
:103DE00005B05DF804FB03F50E33002201921A6C56
:103DF00042F001021A641B6C03F001030193019B62
:103E000005B05DF804FB124B002202925A6C42F49A
:103E100000325A645B6C03F400330293029BDFE7C9
:103E200000220B4B0392596C41F4802159645B6C66
:103E300003F48023039311461A20039BFDF7E0FB54
:103E40001A20FDF713FCCBE7004401400048014075
:103E50000038024002680A4B9A4200D0704782B094
:103E600003F50D33002201921A6C42F002021A642B
:103E70001B6C03F002030193019B02B0704700BF6B
:103E80000004004030B50368164A934287B01AD048
:103E9000154A934208BF4FF4807506D0134A9342E7
:103EA00001D007B030BD4FF4007500230322022477
:103EB00001A90F4801950294039304930592FDF71D
:103EC000CBFD07B030BD022200234FF4E07401A9FE
:103ED000084801940292059203930493FDF7BCFDF8
:103EE000DFE700BF000400400044014000480140FB
:103EF0000004024000080240F0B50368294A9342DA
:103F000089B029D0284A934201D009B0F0BD0024DD
:103F1000264B0294596C264841F0200159645B6C91
:103F200003F0200302930322082303A94FF4C05790
:103F300002260125DDF808E0069207930397049610
:103F40000595FDF789FD224621464720FDF758FBE0
:103F50004720FDF78BFBD8E70024144B0194196C24
:103F6000134841F4003119641B6C0C2703F400332F
:103F70000193032207230DEB070102260125DDF83B
:103F800004E006920793039704960595FDF764FDF8
:103F9000224621462620FDF733FB2620FDF766FB4F
:103FA000B3E700BF00440040001401400038024065
:103FB00000000240704700BFFEE700BFFEE700BF01
:103FC000FEE700BFFEE700BF704700BF704700BFBD
:103FD000704700BF08B5FDF71FF8BDE80840FDF7C2
:103FE00079BB00BF0148FDF7B1B900BF380400201C
:103FF0000148FEF751BA00BF800400200148FEF7D7
:10400000DFBE00BF440300200148FDF755BC00BFE0
:10401000BC0400200148FEF7D3BE00BF040300200B
:104020001049114BD1F8882042F4700210B4C1F845
:1040300088201A680D4C002042F001021A60986036
:104040001A6822F0847222F480321A605C601A6866
:104050004FF0006422F480221A60D8608C605DF812
:10406000044B704700ED00E000380240103000249F
:10407000DFF834D0002103E00C4B5B58435004318F
:104080000B480C4B42189A42F6D30B4A02E000232D
:1040900042F8043B094B9A42F9D3FFF7C1FF00F005
:1040A000FFFAFFF7DBFB704700800120A06B0008E0
:1040B00000000020F4010020F4010020840500200D
:1040C000FEE70000000000002DE9F84F55EC104B12
:1040D000CD4B25F000469E42AA4610DDCB4B9E42BA
:1040E00000F3B38000F0AE80BAF1000F40F3F78028
:1040F000A9A1D1E9000141EC100BBDE8F88FC44B38
:104100009E4200F3C180A3F1DE739E4240F3A7807C
:104110004FF0FF3B22462B4620462946FCF72EFA5D
:1041200002460B4680468946FCF728FA9CA3D3E951
:10413000002306460F46FCF721FA9BA3D3E9002390
:10414000FCF76AF832463B46FCF718FA98A3D3E925
:104150000023FCF761F832463B46FCF70FFA96A3C2
:10416000D3E90023FCF758F832463B46FCF706FA41
:1041700093A3D3E90023FCF74FF832463B46FCF704
:10418000FDF991A3D3E90023FCF746F842464B46DC
:10419000FCF7F4F98EA3D3E9002380468946304624
:1041A0003946FCF7EBF98CA3D3E90023FCF732F88E
:1041B00032463B46FCF7E2F989A3D3E90023FCF73A
:1041C00029F832463B46FCF7D9F987A3D3E9002307
:1041D000FCF720F832463B46FCF7D0F984A3D3E93C
:1041E0000023FCF717F832463B46FCF7C7F9BBF152
:1041F000FF3F02460B4676D040464946FCF70CF896
:1042000022462B46FCF7BAF9824E834B4FEACB0B82
:104210005E449B44DBE90023FBF7FCFF22462B4670
:10422000FBF7F8FF02460B46D6E90001FBF7F2FF69
:10423000BAF1000F0FDA01F10043194641EC100BFF
:10424000BDE8F88F002C3FF44FAF22462B462046A6
:104250002946FBF7E1FF41EC100BBDE8F88F66A3A0
:10426000D3E9002310EE100A2946FBF7D5FF002200
:104270006A4BFCF713FC00283FF44AAF204629465E
:1042800041EC100BBDE8F88F00F0D2F8644B9E4271
:1042900055EC104B36DCA3F550239E425FDC10EE4C
:1042A000102A10EE100A2B462946FBF7B5FF002214
:1042B0005A4BFBF7AFFF002206460F464FF08043F4
:1042C00020462946FBF7A8FF02460B4630463946F2
:1042D000FCF77EFA4FF0000B04460D461AE748A1A2
:1042E000D1E90001B7E740464946FBF795FF224672
:1042F0002B46FCF743F902460B4620462946FBF7BE
:1043000089FFA8E7474B9E421DDC10EE100A0022F1
:10431000454B2946FBF77EFF002206460F46424BDF
:1043200020462946FCF72AF900223C4BFBF774FF94
:1043300002460B4630463946FCF74AFA4FF0020B6C
:1043400004460D46E6E62B4610EE102A00203749BB
:10435000FCF73EFA4FF0030B04460D46DAE610EE8A
:10436000100A00222D4B2946FBF754FF0022064677
:104370000F462A4B20462946FBF74EFF02460B46C6
:1043800030463946FCF724FA4FF0010B04460D463F
:10439000C0E600BFAFF30080182D4454FB21F93F65
:1043A00011DA22E33AAD903FEB0D76244B7BA93F27
:1043B000513DD0A0660DB13F6E204CC5CD45B73FF5
:1043C000FF8300922449C23F0D5555555555D53FA1
:1043D0002F6C6A2C44B4A2BF9AFDDE522DDEAD3F95
:1043E0006D9A74AFF2B0B33F711623FEC671BC3F35
:1043F000C4EB98999999C93F9C7500883CE4377E35
:10440000182D4454FB21F9BFFFFF0F440000F07F3B
:10441000FFFFDB3FE8680008086900080000F03F84
:10442000FFFFF23FFF7F03400000F83F0000F0BFB6
:1044300053EC102B23F0004343EC102B704700BFCC
:104440002DE9F0432DED028B8BB055EC104B00F0B5
:1044500053F8274BB0EE408AF0EE608A93F9006083
:10446000731C12D022462B4620462946FCF720FB1F
:10447000074650B94FF000084FF000092046294682
:1044800042464B46FCF7ECFA40B9B0EE480AF0EE73
:10449000680A0BB0BDEC028BBDE8F083154B0897A2
:1044A0000122CDE90445CDE902458DE80C0096B125
:1044B00042464B4640464946FCF78AF9022ECDE972
:1044C00006010AD100F0E6F821230360089B53B9E6
:1044D0009DED068BD9E7CDE90689684600F0D8F84E
:1044E0000028F3D1EEE700F0D5F8089B0360EFE772
:1044F00020000020286900082DE9F041634855ECB0
:10450000104BA84300F09580002D2B4610EE102A8A
:1045100070DD2F157DD0A7F2FF37C3F31303F90722
:1045200043F4801361D403EBD27100260B447F1057
:104530005200B64616204FF400110EEB01049C42C7
:104540004FEAD2754FEA420203DC1B1B04EB010E5B
:104550000E44013805EB43034FEA5101EDD1844687
:1045600020244FF0004109E020D003EBD275013C3C
:104570004FEA51012B444FEA420220D0734501EB30
:104580000C05F1DD002D05EB010C09DBF046954231
:10459000A3EB0E0300D9013B521B0844C646E4E7D7
:1045A000BCF1000FF2DB0EF10108F0E79542DCD818
:1045B000002D05EB010C4EDB98460023ECE713437E
:1045C00002D0421C4BD0013040087110F30701F1BA
:1045D0007F5101F5001148BF40F0004001EB075347
:1045E000024643EC102BBDE8F0815B0003EBD27375
:1045F000520098E710EE101A25F00040014328D031
:10460000ADBB2F46D30A153F5205002BFAD0DE0270
:1046100028D4002400E004465B00DD0204F1010020
:10462000F9D5C0F1200122FA01F10B433F1B824072
:1046300071E710EE102A2B4610EE100A2946FBF700
:104640009DFF22462B46FBF7E7FD41EC100BBDE832
:10465000F081BDE8F081BCF1000FA4DAACE70136CF
:104660002046B2E7002020214FF0FF34DBE710EEB8
:10467000102A2B4620462946FBF7CCFD02460B4666
:10468000FCF7A6F841EC100BBDE8F0810000F07FCC
:1046900000207047014B1868704700BF24000020BD
:1046A00070B50D4E0D4CA41BA4100025A54209D1D8
:1046B0000B4E0C4C02F08EF8A41BA4100025A54252
:1046C00005D170BD56F8253098470135EEE756F80C
:1046D000253098470135F2E7986B0008986B000881
:1046E000986B00089C6B000802440346934200D17B
:1046F000704703F8011BF9E72DE9FF4755EC104B14
:104700000D9FDDF830A0002D0E4691461946B8BF2A
:1047100022462B4627F02007BBBF05F100431D466C
:1047200000232D23B8BF1446462F0B7004D0452F0D
:1047300000D10136022100E0032103AB019302AB5B
:1047400000933246534645EC104B00F0F1FC472FE6
:10475000804602D119F0010F26D0462F08EB06093A
:1047600011D198F80030302B0AD1002200232046C6
:104770002946FCF76BF918B9C6F10106CAF80060C2
:10478000DAF8003099440022002320462946FCF73D
:104790005DF938B93022039B994505D9591C03911D
:1047A0001A70F8E7CDF80C90039B0E9AA3EB080360
:1047B0004046136004B0BDE8F087F7B50346002912
:1047C000B8BF494203F8022BB4BF2D222B2209297E
:1047D000427020DD0DF1070217460A2691FBF6F51F
:1047E00006FB15113031092D02F8011C02F1FF34CE
:1047F000294609DC3031023A04F8011CBA421C4651
:1048000004D3201A03B0F0BD2246E7E712F8011BDB
:1048100003F8011BF2E730221C46114404F8022B76
:104820005970EEE72DE9F04F8DB00C46DDF8588059
:1048300016461F46054601F049FA036804931846D8
:10484000FCF72EFB00230A93D8F8003005900733BD
:1048500023F0070303F1080294F818A0D4F800B07D
:10486000C8F80020D3E90023C4E91223D4E912894F
:1048700029F000430793CDF818804FF0FF32A54B85
:10488000DDE90601FCF714F9002840F0FB814FF048
:10489000FF32A04BDDE90601FCF7ECF8002840F000
:1048A000F1810022002340464946FCF7D9F810B1B7
:1048B0002D2384F84330984B984ABAF1470F8CBFA8
:1048C0009046984603232BF00402236122604FF0A8
:1048D0000009009733460BAA2146284600F0E2F96A
:1048E000013040F093804FF0FF300DB0BDE8F08F05
:1048F00061684B1C4BF480623FD106236360002348
:1049000003930AAB029309AB009349EC108B0DF1B2
:1049100023032260CDF804A061682846FFF7ECFE6F
:104920000AF0DF03472B804609D1099BD81C02DB24
:104930006268934257DDAAF1020A5FFA8AFABAF175
:10494000650F099934D80139524604F15000099194
:10495000FFF733FF0A9A8318012A8146236102DC9C
:104960002268D10701D5013323619DF82330002B44
:10497000AFD02D2384F84330ABE7BAF1670F02D0F4
:10498000BAF1470FBBD189B1002303930AAB02935D
:1049900009AB009349EC108B2260CDF804A00DF117
:1049A00023032846FFF7A8FE8046BEE70123A5E7BC
:1049B000BAF1660F19D1002963680CDD216113B9C2
:1049C0002268D20702D501330B442361099BA365FA
:1049D0004FF00009C9E713B92268D00701D50233A7
:1049E000F3E70123F1E74FF0670A099B0A9A934224
:1049F00005DB22682361D107E8D50133E5E7002B09
:104A0000D4BFC3F1020301231344DEE723685A0530
:104A100007D42369424631462846B84701302BD196
:104A200061E7BAF1650F40F2E28000220023D4E989
:104A30001201FCF70BF800283CD00123384A31461C
:104A40002846B84701303FF44EAF0A9B099A9A4274
:104A500002DB2368D8070FD5059B049A3146284608
:104A6000B84701303FF43FAF4FF0000804F11A0996
:104A70000A9B013B984512DB23689B0709D54FF041
:104A8000000804F11909E3680B9A9B1A9845C0F2D3
:104A9000EE80E0680B9B9842B8BF184625E70123DB
:104AA0004A4631462846B84701303FF41CAF08F16A
:104AB0000108DDE7099B002B34DC0123184A31464D
:104AC0002846B84701303FF40EAF099B23B90A9B33
:104AD00013B92368D907CFD5059B049A31462846D8
:104AE000B84701303FF4FFAE4FF0000904F11A0A55
:104AF000099B5B42994501DB0A9B8BE701235246E8
:104B000031462846B84701303FF4EDAE09F10109BE
:104B1000EEE700BFFFFFEF7F30690008346900084F
:104B2000406900080A9AA36D9A42A8BF1A46002A53
:104B3000914638DC04F11A034FF0000B29EAE979B9
:104B40000693D4F858A0AAEB09039B4533DB0A9BD4
:104B5000099A9A423ADB2368DA0737D40A9B099903
:104B6000A3EB0A02A3EB01099145A8BF9146B9F155
:104B7000000F33DC4FF0000829EAE97904F11A0A42
:104B8000099A0A9B9B1AA3EB09039845BFF674AFD9
:104B90000123524631462846B84701303FF4A3AEC0
:104BA00008F10108ECE71346314642462846B8476B
:104BB0000130BFD197E60123069A31462846B8470F
:104BC00001303FF490AE0BF1010BBAE7059B049A5C
:104BD00031462846B8470130C0D184E64B4608EB41
:104BE0000A0231462846B8470130C3D17BE60A9A0B
:104BF000012A01DCDB0737D501234246314628462E
:104C0000B84701303FF46FAE059B049A3146284601
:104C1000B84701303FF467AE00220023D4E9120107
:104C2000FBF714FF58B14FF0000804F11A0A0A9B71
:104C3000013B98450DDB4B4604F15002EBE60A9B25
:104C400008F10102013B31462846B8470130F2D154
:104C500049E60123524631462846B84701303FF421
:104C600042AE08F10108E2E701234246EBE70123E7
:104C70004A4631462846B84701303FF434AE08F181
:104C8000010800E742464B4640464946FBF710FF05
:104C900000283FF42DAE014B014A0EE638690008AA
:104CA0003C6900082DE9F04791461F468A680B6968
:104CB000DDF820809342B8BF1346C9F8003091F860
:104CC000432006460C4612B10133C9F80030236870
:104CD000990642BFD9F800300233C9F80030256880
:104CE00015F0060507D104F1190AE368D9F8002088
:104CF0009B1A9D4229DB94F843302268003318BF89
:104D0000012392062ED404F1430239463046C047AF
:104D1000013021D02368E568D9F8002003F00603AC
:104D2000042B08BFAD1AA36822690CBF25EAE575FC
:104D300000259342C4BF9B1AED184FF000091A34A6
:104D40004D451BD10020BDE8F0870123524639466E
:104D50003046C047013003D14FF0FF30BDE8F08747
:104D60000135C2E7E1185A1C302081F84300224483
:104D700094F8451082F843100233C4E70123224619
:104D800039463046C0470130E6D009F10109D7E77E
:104D90002DE9F04317460A7E85B06E2A98460646EE
:104DA0000C460C9B01F1430E00F0BC801AD8632A1C
:104DB0002ED00AD8002A00F0C880582A00F08A8035
:104DC00004F1420584F842202AE0642A01D0692ACD
:104DD000F6D121681A6811F0800F23D0111D1960D7
:104DE000136827E0732A00F0B48008D86F2A2AD00D
:104DF000702AE5D10A6842F020020A6003E0752AB1
:104E000021D0782ADCD1782284F845206E4964E0EC
:104E10001A6801F14205111D1960136884F84230C7
:104E20000123A3E011F0400F02F104011960D7D073
:104E3000B2F90030002B03DA2D225B4284F84320C4
:104E400062490A2217E02068196810F0800F03D029
:104E5000081D18600B6806E010F0400F01F1040017
:104E60001860F7D00B8859496F2A14BF0A2208220C
:104E7000002084F843006568A560002DC0F29C8086
:104E8000206820F004002060002B3FD1002D40F06E
:104E900095807546082A0BD12368DA0708D523695F
:104EA00062689A42DEBF302305F8013C05F1FF3508
:104EB000AEEB05032361CDF800803B4603AA2146F3
:104EC0003046FFF7EFFE013055D14FF0FF3005B00F
:104ED000BDE8F08381F845203C492268186812F04B
:104EE000800F00F104051D6001D0036802E0550643
:104EF000FBD50388D00744BF42F0200222601BB9D3
:104F0000226822F0200222601022B1E77546B3FB2E
:104F1000F2F002FB1033CB5C05F8013D034600289C
:104F2000F5D1B7E708681A68496910F0800F04D016
:104F3000101D18601368196007E010F0400F02F1AF
:104F4000040018601368F6D01980002323617546A9
:104F5000B1E71A68111D19601568626800212846BA
:104F6000FBF7A6FF08B1401B606063682361002364
:104F700084F843309FE723692A4639463046C047C4
:104F80000130A2D023689B0707D5002504F1190939
:104F9000E368039A9B1A9D4205DBE068039B9842F5
:104FA000B8BF184693E701234A4639463046C04702
:104FB00001308AD00135EBE7002BA7D10B7884F8BC
:104FC000423004F1420565E7536900084269000870
:104FD0000EB400B59CB04FF402711DABADF81410C7
:104FE000029006906FF000410A48049107914FF635
:104FF000FF7153F8042BADF816100068019302A955
:1050000001F06CFA029B00221A701CB05DF804EBF0
:1050100003B07047240000202DE9F74F03690C69A5
:105020009C42804600F38280013C01F114074FEA64
:10503000840E00F1140657F8245056F8240006EBAD
:105040000E03013507EB0E090193B0FBF5F595B39F
:105050004FF0000A3846B446D34650F8042B93B2BA
:1050600005FB03A34FEA134A9BB2ABEB0303120CFD
:10507000BCF800B005FB02A213FA8BF34FEA124A08
:105080001FFA82FBDCF80020CBEB124202EB23423A
:105090009BB243EA024381454FEA224B4CF8043B62
:1050A000DBD256F80E3033B9019B043B9E421A46C0
:1050B00030D3C8F81040404601F033F8002825DB13
:1050C000013530464FF0000E57F8042BD0F800C0E1
:1050D00093B2AEEB0303120C13FA8CF3C2EB1C4237
:1050E00002EB23429BB243EA0243B9454FEA224E08
:1050F00040F8043BE8D256F8242006EB84032AB992
:10510000043B9E421A460BD3C8F81040284603B011
:10511000BDE8F08F1268043B002ACAD1013CC5E704
:105120001268043B002AEFD1013CEAE70020EEE7D9
:105130002DE9F04F57EC106B97B0CDE90067466A48
:10514000079104460A920F93209D3EB9102000F06B
:10515000CBFD6062466086600660C660636A19685F
:1051600051B15A684A60012393408B60204600F099
:1051700002FE636A00221A60019B002BBFBF01235D
:105180002B60019B23F00043B2BF019300232B60EF
:10519000DDF80480A84B33EA08031BD10F9A42F2D2
:1051A0000F731360009B23B9C8F31300002800F0AD
:1051B0007885219B53B9A14B21E0A14B0293083381
:1051C000219A1360029817B0BDE8F08F9B4B0293B1
:1051D0000333F5E7DDE90067002200233046394656
:1051E000FBF734FC814660B10F9A01231360219BC9
:1051F000002B00F05385934B219A1360013B0293DF
:10520000E0E714AA15A947EC106B204601F001F85D
:10521000C8F30A558246002D7ED0C7F3130343F02E
:105220007F51304641F44011A5F2FF35CDF848904A
:105230000022854BFAF7EEFF79A3D3E90023FBF7B1
:105240009DF979A3D3E90023FAF7E6FF064628463D
:105250000F46FBF72DF976A3D3E90023FBF78EF970
:1052600002460B4630463946FAF7D6FF06460F4649
:10527000FBF76EFE00228346002330463946FBF7DB
:10528000EFFB58B15846FBF713F902460B46304680
:105290003946FBF7DBFB08B90BF1FF3BBBF1160FFF
:1052A00059D86A4901EBCB01DDE90023D1E90001BE
:1052B000FBF7F4FB002850D00BF1FF3B00230E93CB
:1052C000149B5D1B6B1E069345BFC5F1010305933F
:1052D000002300234CBF06930593BBF1000F3EDB78
:1052E000069BCDF82CB05B44069300230893079BE4
:1052F000092B00F2AF80052BC4BF043B0793079B2B
:10530000A3F10203CCBF00260126032B00F2AE80DE
:10531000DFE803F082842F77159B149D1D4405F26E
:105320003243202B11DD009A05F21240C3F14003F5
:1053300022FA00F008FA03F31843FBF7A9F8012357
:10534000A1F1F871013D129372E7C3F12000009BB7
:1053500003FA00F0F1E70123B1E70E90B0E7059BF7
:10536000A3EB0B030593CBF10003089300230B93EE
:10537000BDE7012309930A9B002B7ADD0493039375
:10538000656A00226A60042101F114029A4275D90B
:105390006968204600F0BBFC636A28601B680293C2
:1053A000039B0E2B00F2E580002E00F0E2809DEDC5
:1053B000007BBBF1000F8DED0C7B74DD234A0BF0FD
:1053C0000F034FEA2B1602EBC303F006D3E9008963
:1053D00059D51F4B51EC170BD3E90823FBF7F8F90C
:1053E000CDE9000106F00F060325194F002E4CD120
:1053F00042464B46DDE90001FBF7EAF9CDE9000141
:105400006AE0012309930A9B5B4404930133012B57
:105410000393B8BF0123B3E70023ABE70023F1E711
:1054200061436F63A787D23FB3C8608B288AC63FAA
:10543000FB799F501344D33F0000F07F6D69000853
:1054400064690008416900080000F83FA06900088D
:105450007869000801260023079309964FF0FF336F
:1054600004930393002212230A9289E701230993EC
:10547000F4E70123049303931A46F5E76A680132BF
:105480006A60490080E70225AFE7F10708D540468A
:105490004946D7E90023FBF771F801358046894674
:1054A00076100837A2E700F09D80CBF100069F4BF5
:1054B0009F4F06F00F0203EBC203D3E90023DDE99F
:1054C0000C01FBF75BF8CDE9000136110023022542
:1054D000002E7CD1002B91D10E9B002B00F08480FC
:1054E000DDE900890022934B40464946FBF7B8FAB4
:1054F000002879D0039B002B76D0049B002B34DD51
:1055000000228D4B40464946FBF738F8CDE90001B3
:10551000049E0BF1FF3701352846FAF7C9FFDDE994
:105520000023FBF72BF80022844BFAF775FE804628
:10553000A1F15079002E5AD10022814BDDE9000102
:10554000FAF768FE42464B46CDE90001FBF7A6FAA2
:10555000002840F09B82424609F10043DDE900014A
:10556000FBF77EFA002840F08F82DDE90C23CDE9BD
:105570000023159B002BC0F25081BBF10E0F00F3EE
:105580004C816A4B03EBCB03D3E900890A9B002BC8
:1055900080F2DA80039B002B00F3D68040F0738208
:1055A0000022674B40464946FAF7E8FFDDE9002351
:1055B000FBF76AFA039E3746002840F04A82029BB6
:1055C000029A5D1C312313700BF1010B45E2F207C7
:1055D00005D5D7E90023FAF7D1FF0135012376106D
:1055E000083775E7022577E75F46039E94E7029A3E
:1055F0004E4B32441392099A711E002A48D003EB95
:10560000C103D3E9002300204E49FBF7E1F84246ED
:105610004B46FAF7FFFD029D80468946DDE9000111
:10562000FBF796FC0646FAF743FF02460B46DDE918
:105630000001FAF7EFFD303605F8016B42464B46A4
:10564000CDE90001FBF70CFA002865D1DDE9002364
:1056500000203849FAF7DEFD42464B46FBF700FAD8
:10566000002840F0BA80139B9D423FF47EAF002299
:10567000314B40464946FAF781FF00228046894671
:105680002D4BDDE90001FAF779FFCDE90001C5E70F
:1056900003EBC10142464B46D1E90001FAF76EFF28
:1056A000CDE91001029DDDE90001FBF751FC064642
:1056B000FAF7FEFE303602460B46DDE90001FAF746
:1056C000A9FD05F8016B139BAB42804689464FF05C
:1056D000000225D11B4BDDE91001FAF79DFD0246C2
:1056E0000B4640464946FBF7D9F9002875D1DDE95C
:1056F000102300201349FAF78DFD02460B46404661
:105700004946FBF7ADF900283FF42FAF15F8013CEF
:10571000302B05F1FF3201D0BB464DE01546F5E7D1
:10572000054BFAF72BFFCDE90001BCE7A0690008A3
:10573000786900080000F03F0000244000001C4091
:10574000000014400000E03FDDE90067029D424692
:105750004B4630463946FBF73BF8FBF7F9FB009028
:10576000FAF7A6FE42464B46FAF708FF02460B46FA
:1057700030463946FAF74EFD009E039F303605F855
:10578000016B029EAE1BB74202460B4638D1FAF7B8
:1057900043FD06460F4602460B4640464946FBF788
:1057A0005FF9C8B932463B4640464946FBF74EF9D9
:1057B00010B1009BDB070FD45146204600F0DBFA06
:1057C00000230F9A2B700BF101031360219B002B18
:1057D0003FF4F8AC1D60F5E45F4615F8012C392A5A
:1057E00005F1FF3306D1029A9A4207D13023137094
:1057F000013713461A7801321A708DE71D46ECE71F
:105800000022A44BFAF7BAFE0022002306460F46F8
:10581000FBF71CF900289AD0CEE7099A002A00F07D
:10582000CD80079A012A00F3AF80129A002A00F077
:10583000A78003F23343089E059D059A1A440592FA
:10584000069A01211A442046069200F034FB0746CE
:10585000002D0CDD069B002B09DDAB42059AA8BF8D
:105860002B46D21A0592069AED1AD31A0693089B74
:10587000F3B1099B002B00F0A580002E10DD394606
:105880003246204600F0AEFB52460146074620460F
:1058900000F01AFB51468046204600F06CFAC246E2
:1058A000089B9A1B04D05146204600F09BFB824681
:1058B0000121204600F0FFFA0B9B002B064640F327
:1058C00083801A460146204600F08CFB079B012B83
:1058D00006467CDD4FF00008336906EB8303186948
:1058E00000F09BFAC0F12000069B184410F01F0046
:1058F00000F09680C0F12003042B40F38780059BC5
:10590000C0F11C0003440593069B05440344069321
:10591000059B002B05DD51461A46204600F0B0FBE2
:105920008246069B002B05DD31461A46204600F0D4
:10593000A7FB06460E9B002B74D03146504600F064
:10594000F0FB00286EDA002351460A22204600F0C0
:1059500029FA099B0BF1FF3B8246002B00F0A8813E
:10596000002339460A22204600F01CFA049B002B33
:10597000074600F3C880079B022B40F3C48059E020
:10598000149BC3F1360356E7039B5E1E089BB3428C
:10599000BFBF089B0896F21A0B9BB6BF9B189E1BB5
:1059A0000B93039BB8BF0026002BB9BF059B039A3E
:1059B000059D039BBCBF9D1A00233EE7089E059DE5
:1059C000099F45E7089A6EE7079B012B19DC009BAE
:1059D000BBB9019BC3F313039BB9019B23F00043A5
:1059E0001B0D1B0583B1059B01330593069B0133FA
:1059F00006934FF001080B9B002B7FF46DAF012045
:105A000072E74FF00008F6E79846F4E780D0059A71
:105A10001C331A440592069A1A441D44134676E72D
:105A20000346F4E7039B002B36DC079B022B33DD98
:105A3000039B0493049B63B931460522204600F082
:105A4000B1F901460646504600F06BFB00283FF7CF
:105A5000B6AD0A9B029D6FEA030B00230393314608
:105A6000204600F088F9002F3FF4A6AE039B2BB12F
:105A7000BB4203D01946204600F07DF93946204646
:105A800000F079F998E600263746E2E7BB4637464C
:105A900095E500BF00002440099B93BB039B049342
:105AA000029D31465046FFF7B7FA00F1300905F87C
:105AB000019B029B049AEB1A9A4200F3DC80029B42
:105AC000012AACBF9B18013398460023039351462B
:105AD0000122204600F0D4FA3146824600F021FB34
